:100000000C94ED050C9493140C946C140C944514FE
:100010000C941E140C9415060C9415060C94F713EE
:100020000C9415060C9415060C94BA140C9429150E
:100030000C9415060C9415060C9415060C941506D4
:100040000C9415060C9415060C9415060C941506C4
:100050000C9415060C9415060C9415060C94AD130F
:100060000C9415060C9481170C945B170C941506D0
:100070000C9415060C9415060C9415060C94150694
:100080000C9415060C9415060C9415060C94150684
:100090000C94B3170C9415060C9415060C941506C5
:1000A0000C9415060C9415060C941506084AD73BBB
:1000B0003BCE016E84BCBFFDC12F3D6C74319ABD37
:1000C00056833DDA3D00C77F11BED9E4BB4C3E915B
:1000D0006BAAAABE000000803F0000407A10F35ACD
:1000E00000A0724E18090010A5D4E80000E8764878
:1000F000170000E40B54020000CA9A3B000000E124
:10010000F505000080969800000040420F000000B6
:10011000A08601000000102700000000E803000096
:1001200000006400000000000A0000000000010060
:10013000000000002C76D888DC674F0823DFC1DF81
:10014000AE59E1B1B796E5E3E453C63AE651997684
:1001500096E8E6C28426EB898C9B62ED407C6FFCBE
:10016000EFBC9C9F40F2BAA56FA5F490055A2AF700
:100170005C936B6CF9676DC11BFCE0E40D47FEF509
:1001800020E6B500D0ED902E030094357705008071
:10019000841E080000204E0A000000C80C333333D0
:1001A000330F986E12831141EF8D2114893BE65570
:1001B00016CFFEE6DB18D1844B381BF77C1D901D53
:1001C000A4BBE424203284725E228100C9F124ECB5
:1001D000A1E53D27080B000202020000090400000F
:1001E00001020200000524001001052401010104A0
:1001F00024020605240600010705810310004009BA
:10020000040100020A000000070502024000000786
:100210000583024000000403090412010002EF02FA
:1002200001404123368000010102030141726475DF
:10023000696E6F204C4C430041726475696E6F208B
:100240004C656F6E6172646F00FB00003E000B0036
:1002500036000100020003000000650054FFEF00BB
:1002600000FA80000B128200010002000000000072
:1002700000000000000000000000280000FFFF4513
:1002800081FFFFFA7200000000000003E800000098
:100290000100017FFFFFFE8001001B000000000045
:1002A00000000000000000000000400000400000CE
:1002B0000002CB47A2200000002000000000000048
:1002C00000400000006000000041FF000000000B43
:1002D0002A0000165500002182FD872650FD80006F
:1002E00000001F0000000580000000000000010069
:1002F00000000200000003000040000000000004B5
:100300006F0002653200005EC04000000000000087
:10031000000000000000000000FB8C6F5DFD5D0828
:10032000D9007C733B006C12CC3200139D3200D09C
:10033000D632000800400001F4FFE6807902000098
:10034000000000D0D600002710FB00000040000095
:10035000000000000000000000000000010000009C
:100360000000000100010000000000FA36FFBC3070
:100370008E0005FBF0FFD95BC8FFD09ABE000010CD
:10038000A9FFF41EB200CEBBF70000000100000080
:1003900004000200020200000CFFC2800000018085
:1003A0000000CF80004000000000000000000000BE
:1003B0000000000600000000140000000000000023
:1003C000000000000000000000000000000000002D
:1003D0000000000000000000000923A1350000001B
:1003E00000000000000000000000000000033F6863
:1003F000B6793528BCC67ED16C8000FFFF40000076
:10040000000000B26A0000000000000000000000D0
:100410000000003FF000000030000000000000007D
:1004200000000000000000000000000000000000CC
:100430000000000000000040000000254D002F706B
:100440006D000005AE000C02D00000000000650049
:1004500054FFEF0000000000000000010000440015
:100460000100058BC10000010000000000006500D4
:100470000000540000FFEF0000000000000000003A
:10048000000000000000000000000000000000006C
:10049000000000000000000000000000000000005C
:1004A000000000000000000000000000010000004B
:1004B000020000000000000000000000000000003A
:1004C000000000000000000000000000000000002C
:1004D000000000000000000000001B000000000001
:1004E000000000000000000000000000000000000C
:1004F00000000000000000000000000000000000FC
:10050000000000000000000000001B0000000000D0
:1005100000000000000000000000000000000000DB
:1005200000000000000000000000000000000000CB
:1005300000000000000000000000000000000000BB
:10054000000000000000000000D8DCBAA2F1DEB21A
:10055000B8B4A88191F74A907F916AF3F9DBA8F9C2
:10056000B0BAA080F2CE81F3C2F1C1F2C3F3CCA243
:10057000B280F1C6D880BAA7DFDFDFF2A7C3CBC550
:10058000B6F087A2942448703C95406834589B7814
:10059000A2F183922D557DD8B1B4B8A1D09180F24B
:1005A00070F370F27C80A8F101B09887D943D886A7
:1005B000C988BAA1F20EB89780F1A9DFDFDFAADF00
:1005C000DFDFF2AA4CCD6CA90CC92C97979797F155
:1005D000A989264666B0B4BA80ACDEF2CAF1B28C04
:1005E00002A9B69800890E161EB8A9B4992C547C9D
:1005F000B08AA896365676F1B9AFB4B083C0B8A821
:100600009711B18F98B9AFF0240844106418F1A382
:1006100029557DAF83B593AFF0002850F1A3869F95
:1006200061A6DADEDFD9FAA38696DB31A6D9F8DF38
:10063000BAA68FC2C5C7B28CC1B8A2DFDFDFA3DF05
:10064000DFDFD8D8F1B8A8B286B4980D355DB8AA66
:1006500098B0872D353DB2B6BAAF8C96198F9FA74B
:100660000E161EB49AB8AA872C547CB9A3DEDFDF1D
:10067000A3B180F2C4CDC9F1B8A9B499830D355D99
:1006800089B9A32D557DB593A30E161EA92C547CB4
:10069000B8B4B0F19783A81184A50998A383F0DAC0
:1006A000240844106418D8F1A529557DA585950224
:1006B0001A2E3A565A4048F9F3A3D9F8F0988324F1
:1006C00008441064189782A8F111F098A2240844F5
:1006D000106418DAF3DED883A59401D9A302F1A23D
:1006E000C3C5C7D8F18492A24DDA2AD84869D92A5D
:1006F000D86855DA32D85071D932D8705DDA3AD824
:100700005879D93AD87893A34DDA2AD84869D92AA2
:10071000D86855DA32D85071D932D8705DDA3AD803
:100720005879D93AD878A88A9AF02850789EF388D0
:1007300018F19F1D98A8D908D8C89F129EF315A834
:10074000DA1210D8F1AFC8978734B5B994A421F361
:10075000D922D8F22DF3D92AD8F235F3D932D8815B
:10076000A4606061D961D86C6869D969D874707106
:10077000D971D8B1A384193D5DA3831A3E5E93104D
:1007800030811011B8B0AF8F94F2DA3ED8B49AA885
:100790008729DAF8D8879A35DAF8D8879A3DDAF8CF
:1007A000D8B1B9A49885022E56A581000C14A39740
:1007B000B08AF12DD928D84DD948D86DD968D8B18B
:1007C000840DDA0ED8A32983DA2C0ED8A3844983AA
:1007D000DA2C4C0ED8B8B0A88A9AF520AADADFD85D
:1007E000A840AAD0DADED8A860AADAD0DFD8F1977C
:1007F00086A8319B069907AB9728889BF00C20149C
:1008000040B8B0B4A88C9CF0042851791D3014383D
:10081000B282ABD0982C505078789BF11AB0F08A05
:100820009CA82951798B2951798A2470598B205899
:10083000718A4469388B3940688A6448318B304901
:1008400060A588200971584468113964493019F14C
:10085000AC002C547CF08CA804285078F1889726A2
:10086000A85998AC8C02264666F0899CA829517933
:10087000247059446938644831A98809205970ABFB
:1008800011384069A8193148608CA83C415C207C33
:1008900000F187981986A86E767EA999882D557DD6
:1008A0009EB9A38A228A6E8A568A5E9FB1830626E3
:1008B00046660E2E4E6E9DB8AD002C547CF2B18C67
:1008C000B499B9A32D557D8191AC38AD3AB58391DA
:1008D000AC2DD928D84DD948D86DD968D88C9DAEC3
:1008E00029D904AED851D904AED879D904D881F326
:1008F0009DAD008DAE1981ADD901D8F2AEDA26D802
:100900008E912983A7D9ADADADADF32AD8D8F1B07A
:10091000AC89913E5E76F3AC2E2EF1B18C5A9CAC34
:100920002C2828289CAC3018A8988128343C97247F
:10093000A728343C9C24F2B089AC912C4C6C8A9B47
:100940002DD9D8D851D9D8D879D9D8D8F19E88A35B
:1009500031DAD8D8912DD928D84DD948D86DD96851
:10096000D8B18393353D8025DAD8D88569DAD8D8CF
:10097000B49381A328343CF3AB8BF8A391B609B4AC
:10098000D9ABDEFAB0879CB9A3DDF1202830389AC4
:10099000F12830389DF1A3A3A3A3F2A3B49080F271
:1009A000A3A3A3A3A3A3A3A3A3A3B2A3A3A3A3A308
:1009B000A3B087B599F128303898F1A3A3A3A397E2
:1009C000A3A3A3A3F39BA330DCB9A7F1262626FE9D
:1009D000D8FF0A002000002C2020002000002C203E
:1009E00020002000002C2020002000002C202000CF
:1009F0002000002C2020002000000A2F2F20202083
:100A000020202020202020205820416363656C2076
:100A1000205920416363656C20205A20416363653F
:100A20006C20202058204779726F202020592047C1
:100A300079726F2020205A204779726F0A2F2F4F2A
:100A4000464653455453202020002900444D502051
:100A5000496E697469616C697A6174696F6E206648
:100A600061696C65642028636F64652000444D50A3
:100A7000207265616479212057616974696E67200D
:100A8000666F7220666972737420696E7465727223
:100A90007570742E2E2E00292E2E2E00456E61624A
:100AA0006C696E6720696E7465727275707420640B
:100AB0006574656374696F6E202841726475696E30
:100AC0006F2065787465726E616C20696E746572F2
:100AD000727570742000456E61626C696E672044A7
:100AE0004D502E2E2E004D50553630353020636F30
:100AF0006E6E656374696F6E206661696C65640013
:100B00004D50553630353020636F6E6E65637469B5
:100B10006F6E207375636365737366756C00496EE1
:100B2000697469616C697A696E6720444D502E2E34
:100B30002E0054657374696E672064657669636519
:100B400020636F6E6E656374696F6E732E2E2E0058
:100B5000000000002300260029002C002F000000C8
:100B60000000240027002A002D00300000000000B3
:100B7000250028002B002E00310004040404040387
:100B8000040502020202040302020202060606062D
:100B90000606040402020204040408020110408054
:100BA0004010204080408008020401804020100254
:100BB00001108010204040200000000200090F00BA
:100BC00000030401000C0000000000000000000011
:100BD0000000000000000000D21811241FBECFEF5B
:100BE000DAE0DEBFCDBF11E0A0E0B1E0E2E2FEE47A
:100BF00002C005900D92A038B107D9F723E0A0E814
:100C0000B1E001C01D92AA3DB207E1F715E0CDEEBB
:100C1000D5E004C02197FE010E949222CC3ED1076C
:100C2000C9F70E9442190C940F270C940000FC0194
:100C300080913D02882311F13FB7F89482E08093C0
:100C4000E9002091F200822F90E01816190614F4A2
:100C500081E090E0882339F0289844E640933C02F4
:100C60004091F1004083222339F02091F2002111BC
:100C700003C02BE62093E8003FBF08958FEF9FEF5E
:100C800008952FB7F89483E08093E9009091E800ED
:100C9000892F807295FF04C09091F20080E4891B37
:100CA0002FBF08958091340281110DC082E080939E
:100CB000300284E0809331021092330210923202AB
:100CC00081E08093340280E392E0089581508F3078
:100CD00008F047C0E82FF0E0E059F94F0C94922259
:100CE0008D0691067F0685068906B106B106B10616
:100CF00094069A069E06A206A806B106AC06809146
:100D000080008F77809380000895809180008F7D90
:100D1000F9CF80918000877FF5CF84B58F7784BD30
:100D2000089584B58F7DFBCF809190008F7780935D
:100D300090000895809190008F7DF9CF8091900070
:100D4000877FF5CF8091C0008F778093C000089592
:100D50008091C0008F7DF9CF8091C200877F809302
:100D6000C20008951F93CF93DF93282F30E0F9013D
:100D7000E854F44F8491F901E756F44FD491F90106
:100D8000E658F44FC491CC23A9F0162F81110E948C
:100D90006606EC2FF0E0EE0FFF1FE459F44FA5912B
:100DA000B4918FB7F894EC91111108C0D095DE235F
:100DB000DC938FBFDF91CF911F910895DE2BF8CF89
:100DC000CF93DF9390E0FC01E756F44F24918658CF
:100DD000944FFC0184918823C9F090E0880F991FFB
:100DE000FC01E25AF44FA591B491FC01E459F44F8F
:100DF000C591D49161110DC09FB7F8948C91209545
:100E000082238C938881282328839FBFDF91CF91F1
:100E10000895623051F49FB7F8943C91822F8095E9
:100E200083238C93E8812E2BEFCF8FB7F894EC912E
:100E30002E2B2C938FBFEACF3FB7F89480912C02D2
:100E400090912D02A0912E02B0912F0226B5A89B61
:100E500005C02F3F19F00196A11DB11D3FBFBA2F4C
:100E6000A92F982F8827BC01CD01620F711D811D0C
:100E7000911D42E0660F771F881F991F4A95D1F791
:100E800008958F929F92AF92BF92CF92DF92EF928E
:100E9000FF924B015C010E941C076B017C010E94C8
:100EA0001C076C197D098E099F09683E73408105F6
:100EB0009105A8F321E0821A9108A108B10888EEF3
:100EC000C80E83E0D81EE11CF11C81149104A1041A
:100ED000B10429F7FF90EF90DF90CF90BF90AF90D3
:100EE0009F908F9008952FB7F89460912802709189
:100EF000290280912A0290912B022FBF089581E050
:100F00008093800108950895089508954091C70140
:100F10005091C8012091C5013091C6014217530775
:100F2000B4F49091E8009570E1F39091E80092FD9F
:100F300019C08093F1008091C7019091C80101967A
:100F40008F739927892B19F48EEF8093E800809195
:100F5000C7019091C80101969093C8018093C70181
:100F600081E0089580E00895EF92FF920F931F9320
:100F7000CF93DF93F82E192FE62E042F81E0860FF2
:100F8000880F0E94860783E00E948607CF2DD12F0D
:100F9000EC0EFD2EF11CCE15DF05B9F007FF13C0D6
:100FA000FE0184910E948607182F80E00E94860728
:100FB000812321968111EFCFDF91CF911F910F9166
:100FC000FF90EF9008958881EDCF81E0F5CFDF921B
:100FD000EF92FF920F931F93CF93DF93D82E8A0146
:100FE000EB017B01E40EF51ECE15DF0559F0D7FEAF
:100FF00012C0FE0184910E94860721968111F4CFD0
:101000000FEF1FEFC801DF91CF911F910F91FF905C
:10101000EF90DF9008958881EECF0F931F93CF93C9
:10102000DF931F92CDB7DEB782E0898342E450E0C0
:1010300064ED71E080E80E94E7070E945206DC013F
:1010400012960D911C910115110589F0D801ED91B1
:10105000FC910280F381E02DBE016F5F7F4FC801DC
:10106000099597FD04C0F80100851185ECCF8981B1
:101070000F90DF91CF911F910F910895615030F043
:101080002091F100FC0120830196F8CF289884E696
:1010900080933C020895AF92BF92CF92DF92EF927D
:1010A000FF920F931F93CF93DF936C017B018B0112
:1010B000040F151FEB015E01AE18BF08C017D10762
:1010C00059F06991D601ED91FC910190F081E02DEC
:1010D000C6010995892B79F7C501DF91CF911F9141
:1010E0000F91FF90EF90DF90CF90BF90AF90089559
:1010F000FC01538D448D252F30E0842F90E0821B1E
:10110000930B541710F0CF96089501970895FC01A2
:10111000918D828D981761F0A28DAE0FBF2FB11DFA
:101120005D968C91928D9F5F9F73928F90E0089552
:101130008FEF9FEF0895FC01918D828D981731F00C
:10114000828DE80FF11D858D90E008958FEF9FEF60
:101150000895FC01918D228D892F90E0805C9F4F36
:10116000821B91098F73992708958EEA92E00E945D
:10117000A90821E0892B09F420E0822F089580E05E
:1011800090E0892B29F00E94B50881110C94000091
:101190000895FC01A48DA80FB92FB11DA35ABF4F0C
:1011A0002C91848D90E001968F739927848FA68966
:1011B000B7892C93A089B1898C9182748C93938D7B
:1011C000848D981306C00288F389E02D80818F7D7D
:1011D00080830895EF92FF920F931F93CF93DF9335
:1011E000EC0181E0888F9B8D8C8D981319C0E88964
:1011F000F989808185FF14C09FB7F894EE89FF8933
:101200006083E889F9898081827480839FBF81E04F
:1012100090E0DF91CF911F910F91FF90EF90089593
:10122000F62E0B8D10E00F5F1F4F0F731127E02E6E
:101230008C8D8E110CC00FB607FCFACFE889F989A6
:10124000808185FFF5CFCE010E94C908F1CFEB8DDB
:10125000EC0FFD2FF11DE35AFF4FF0829FB7F8947A
:101260000B8FEA89FB8980818062CFCFCF93DF9398
:10127000EC01888D8823B9F0AA89BB89E889F989AE
:101280008C9185FD03C0808186FD0DC00FB607FCE3
:10129000F7CF8C9185FFF2CF808185FFEDCFCE0116
:1012A0000E94C908E9CFDF91CF9108958F929F9254
:1012B000AF92BF92CF92DF92EF92FF920F931F9364
:1012C000CF93DF936C017B018A0180910B0188230E
:1012D00009F45CC080913D02882309F457C08091D5
:1012E000CB0180FF05C08091E00082608093E00028
:1012F000E801B12C8AEFA82E93E0892E2AE3922EE2
:10130000209711F4BB20D9F10E94410681110AC037
:10131000AA94AA20D9F161E070E080E090E00E94F8
:101320004107EECF8C171D0611F00CF08C2F9FB7E4
:10133000F8948092E9002091E80025FD02C09FBF4B
:10134000DFCF282F30E0C21BD30BF701815020F0F4
:1013500041914093F100FACFE20EF31EBB2021F041
:101360009092E800B12CEBCF8091E80085FDE7CFAB
:101370009092E800BB24B394209709F3F3CF5D98D3
:1013800084E68093CA01101611063CF081E090E0DB
:10139000F6019383828310E000E0C801DF91CF91D2
:1013A0001F910F91FF90EF90DF90CF90BF90AF9083
:1013B0009F908F900895CF93DF931F92CDB7DEB7A4
:1013C0006983DC01ED91FC910280F381E02D41E025
:1013D00050E0BE016F5F7F4F09950F90DF91CF9175
:1013E00008950F931F93CF93DF938C01D0E0C0E05B
:1013F000F801EC0FFD1F6491662341F08BE493E04C
:101400000E94DB09892B11F02196F2CFCE01DF91EA
:10141000CF911F910F91089583E08093E90080910F
:10142000F200882319F08AE38093E80008950E946F
:10143000410690E00895CF93DF931F92CDB7DEB7BA
:10144000FC018485958597FD08C02FEF3FEF358718
:1014500024870F90DF91CF910895CE0101960E94CD
:101460001706019719F4898190E0F3CF8FEF9FEF72
:10147000F0CF0F931F93CF93DF931F92CDB7DEB7BB
:101480008C01FC018485958597FF0BC0CE010196E8
:101490000E941706019771F4898190E0F801958701
:1014A0008487F801848595850F90DF91CF911F91F6
:1014B0000F9108958FEF9FEFF1CFFC018485958503
:1014C00097FD0BC09FB7F89482E08093E90080916C
:1014D000F2009FBF90E0019608959FB7F89482E0D4
:1014E0008093E9008091F2009FBF90E00895809181
:1014F000D1019091D201891B990B08952091A201ED
:10150000260F3327331F21323105ECF42091A80236
:10151000FC0190E080E0243069F082E00895A09121
:10152000A2012191AC014E575E4FA40FB52FB11D02
:101530002C930196861798F38091A201680F60930F
:10154000A20180E0089581E008951092A80281E050
:10155000809387021092820261E082E00E94B206CC
:1015600061E083E00E94B206E9EBF0E080818E7FCB
:10157000808380818D7F808388E48093B80085E4B8
:101580008093BC000895CF93DF9391E09093810105
:101590008823B9F0C091B800D091BA008091BC0006
:1015A0008A7B8093BC0060E082E00E94B20660E02B
:1015B00083E00E94B2060E94A50AD093BA00C093AD
:1015C000B800DF91CF910895CF92DF92EF92FF9212
:1015D0000F931F93CF93DF93D82FC62F613208F05C
:1015E00098C00E941C076B017C018091A8028111A8
:1015F0006BC081E08093A802809387029FEF909355
:101600008602109285029C0F90938402809383023D
:1016100080918302DD0FD82BD093830280918202C8
:10162000813009F078C0109282020E941C076B0181
:101630007C01809183028093BB008091AA029091EB
:10164000AB02A091AC02B091AD02892B8A2B8B2BFF
:10165000A1F00E941C070091AA021091AB022091F8
:10166000AC023091AD026C197D098E099F090617F5
:1016700017072807390708F448C08091BC0083FD8C
:10168000D8CF85EC8093BC000E941C076B017C01C5
:101690008091A802813009F440C0809185028C17A6
:1016A00010F4C0918502E2E6F2E0A8E8B2E080E042
:1016B0008C1355C08C2FDF91CF911F910F91FF900C
:1016C000EF90DF90CF9008958091AA029091AB02A5
:1016D000A091AC02B091AD02892B8A2B8B2B09F41F
:1016E00084CF0E941C070091AA021091AB022091A6
:1016F000AC023091AD026C197D098E099F09061765
:1017000017072807390708F070CF8091A9020E94B7
:10171000C30AC0E0CFCF85EEB5CF8091AA029091E9
:10172000AB02A091AC02B091AD02892B8A2B8B2B1E
:1017300009F4AECF0E941C070091AA021091AB02DF
:101740002091AC023091AD026C197D098E099F0980
:10175000061717072807390708F09ACFD6CF9191B7
:101760009D938F5FA5CFCF92DF92EF92FF920F9361
:101770001F93CF93DF93D091610281E0D13208F0C3
:101780009CC0C09160020E941C076B017C0180918B
:10179000A80281116CC082E08093A80281E080934E
:1017A00087028FEF8093860210928502D093840285
:1017B000A0E4B2E0E2E6F2E080E0D8138DC010923F
:1017C000830280918302CC0FC82BC0938302809147
:1017D0008202813009F084C0109282020E941C07AC
:1017E0006B017C01809183028093BB008091AA02EF
:1017F0009091AB02A091AC02B091AD02892B8A2BE3
:101800008B2BA1F00E941C070091AA021091AB0241
:101810002091AC023091AD026C197D098E099F09AF
:10182000061717072807390708F442C08091BC0043
:1018300083FDD8CF85EC8093BC000E941C076B0110
:101840007C018091A802823009F44CC0809186020C
:101850008F3F09F469C080918602803209F466C026
:1018600080918602803309F463C084E026C08091B1
:10187000AA029091AB02A091AC02B091AD02892B6B
:101880008A2B8B2B09F483CF0E941C070091AA029C
:101890001091AB022091AC023091AD026C197D0920
:1018A0008E099F09061717072807390708F06FCF19
:1018B0008091A9020E94C30A85E010923F02109213
:1018C000610210923E02DF91CF911F910F91FF9024
:1018D000EF90DF90CF9008959D9191938F5F6DCFA2
:1018E00085EEA9CF8091AA029091AB02A091AC02A3
:1018F000B091AD02892B8A2B8B2B09F4A2CF0E94C9
:101900001C070091AA021091AB022091AC02309109
:10191000AD026C197D098E099F0906171707280764
:10192000390708F08ECFC4CF80E0C7CF82E0C5CFA3
:1019300083E0C3CF0895E091D2018091D101E817EF
:1019400030F4F0E0E857FD4F808190E008958FEF8C
:101950009FEF08959091D2018091D1012FEF3FEF39
:10196000981748F4E92FF0E0E857FD4F208130E068
:101970009F5F9093D201C9010895CF92DF92EF92B9
:10198000FF920F931F93CF93DF937C01CB018A01CA
:1019900020913E02222389F0EB016B01C40ED51E7B
:1019A000CC15DD0569F06991D701ED91FC910190AD
:1019B000F081E02DC7010995F3CF642F0E947E0AC4
:1019C000C801DF91CF911F910F91FF90EF90DF90B1
:1019D000CF900895CF93DF931F92CDB7DEB7698381
:1019E00020913E022223F9F020916102203258F02A
:1019F00021E030E0FC013383228390E080E00F900F
:101A0000DF91CF91089580913F02E82FF0E0E05CF4
:101A1000FD4F998190838F5F80933F028093610295
:101A200081E090E0ECCF61E0CE0101960E947E0A59
:101A3000F7CFCF93DF93EA0191E090933E0280933A
:101A4000600210923F02109261028BE993E00E94C3
:101A5000EA0C69818BE993E00E94EA0C68818BE9CA
:101A600093E00E94EA0C0E94B30B91E0811190E098
:101A7000892FDF91CF910895FF920F931F93CF93FA
:101A8000DF93042FF22E132F91E090933E02809368
:101A9000600210923F02109261028BE993E00E9473
:101AA000EA0CCF2DD12F0C0F1D2F111DC017D10700
:101AB00031F069918BE993E00E94EA0CF7CF0E9424
:101AC000B30B91E0811190E0892FDF91CF911F91AD
:101AD0000F91FF900895CF93DF931F92CDB7DEB79C
:101AE00049839E012F5F3F4F41E00E943C0D0F90C4
:101AF000DF91CF91089590E080E00895FC0101907E
:101B00000020E9F73197AF01481B590BBC018BE46A
:101B100093E00C945609CF93DF930E94F109EC01F6
:101B200089E591E00E947E0D8C0F9D1FDF91CF9182
:101B300008958F929F92AF92BF920F931F93CF936E
:101B4000DF93CDB7DEB7A1970FB6F894DEBF0FBE17
:101B5000CDBF19A2423008F44AE08E010F5D1F4F3D
:101B6000842E912CB12CA12CA50194010E946122FC
:101B7000E62FB901CA01EA30F4F4E05DD801EE9332
:101B80008D01232B242B252B79F790E080E01097F3
:101B900019F0CD010E947E0DA1960FB6F894DEBF1C
:101BA0000FBECDBFDF91CF911F910F91BF90AF902E
:101BB0009F908F900895E95CE1CF009711F00C940D
:101BC0007E0D90E080E008952F923F924F925F92B9
:101BD0006F927F928F929F92AF92BF92CF92DF923D
:101BE000EF92FF920F931F93CF93DF93CDB7DEB7A2
:101BF00029970FB6F894DEBF0FBECDBF582E6D8368
:101C00004B833F832E830E9473076B017C012B81E2
:101C1000622E712CC301880F991F9A838983220F2A
:101C20002B8399819C83212C412C4801B12CA12C20
:101C3000E981FA812E161F060CF061C0F1E0F093E5
:101C40003E025092600210923F02109261026D813A
:101C50008BE993E00E94EA0C0E94B30B6B81852D07
:101C60000E94E40A1092D2018093D101332433946C
:101C70009091D1018091D201981789F1242D042CE3
:101C8000000C330B398728872615370544F50115D5
:101C90001105D1F488859985880F991FEE81FF8100
:101CA0008E0F9F1F9987888731101EC08BE993E0A4
:101CB0000E94AA0CE885F98520813181822B932B23
:101CC00091838083439418C00E9473076C197D0927
:101CD0008E099F09681579058A059B05D8F20E942F
:101CE000B30BFC812F0EA4CF8BE993E00E94AA0CCA
:101CF000E885F98510828183F1E03F26B9CF01158F
:101D00001105B1F00E9473076C197D098E099F09B6
:101D100030E020E0601771078207930748F0842DB8
:101D2000042C000C990B8615970514F444244A944E
:101D3000842D29960FB6F894DEBF0FBECDBFDF917C
:101D4000CF911F910F91FF90EF90DF90CF90BF90B8
:101D5000AF909F908F907F906F905F904F903F904B
:101D60002F9008952F923F924F925F926F927F92A1
:101D70008F929F92AF92BF92CF92DF92EF92FF929B
:101D80000F931F93CF93DF9300D000D0CDB7DEB772
:101D9000782E662E4C833A8329830E9473076B0149
:101DA0007C01512C1B822C81222E312C4801B12C1C
:101DB000A12C8C81581608F04AC091E090933E0205
:101DC0007092600210923F0210926102662D8BE9C0
:101DD00093E00E94EA0C0E94B30BB10165197109EE
:101DE0006132710514F060E270E0613208F060E287
:101DF000872D0E94E40A482E1092D2018093D101CF
:101E00008091D2014816E9F00115110579F48BE9AA
:101E100093E00E94AA0CE981FA812B81E20FF11D67
:101E200027FDFA9580832F5F2B83EACF0E947307EB
:101E30006C197D098E099F09681579058A059B052E
:101E400030F38C81813208F080E2580EB2CF011558
:101E50001105C1F00E9473076C197D098E099F0955
:101E600030E020E0601771078207930758F02B815C
:101E7000822F220F990B2C812817190619F014F0C4
:101E80008FEF8B838B810F900F900F900F90DF91CE
:101E9000CF911F910F91FF90EF90DF90CF90BF9067
:101EA000AF909F908F907F906F905F904F903F90FA
:101EB0002F9008952F923F924F925F926F927F9250
:101EC0008F929F92AF92BF92CF92DF92EF92FF924A
:101ED0000F931F93CF93DF933C015B01242E522E6F
:101EE000302E6DE68091C3030E946B0D452D6EE68A
:101EF0008091C3030E946B0D80E190E00E94DD257C
:101F00006C01D0E0C0E0002329F080E190E00E9465
:101F1000DD25EC01F12CE12CC70140964A2C4E182E
:101F2000A816B90610F080E1482E80E091E08519EE
:101F300091094816190619F014F0452C41943320E4
:101F400079F0DE0190E080E093012E0D3F1D8415B5
:101F500050F4F901E80FF91FE491ED930196F7CFE2
:101F6000E301CE0DDF1D9E01442D6FE68091C3037A
:101F70000E943C0D842C912CC114D104D1F1422D2E
:101F80004F716DE68091C3030E946B0D452D6EE687
:101F90008091C3030E946B0D08EE13E09601442D5F
:101FA0006FE68091C3030E94B20EA401B601CE0178
:101FB0000E940227892BE9F0C6010E94792633206E
:101FC00021F0CE010E947926312C832DDF91CF9113
:101FD0001F910F91FF90EF90DF90CF90BF90AF9047
:101FE0009F908F907F906F905F904F903F902F9039
:101FF0000895E80CF91CEA14FB04A8F4540C09F445
:102000002394422D4F716DE68091C3030E946B0DA6
:10201000452D6EE68091C3030E946B0D7DCFCE01EE
:102020000E947926D2CFC6010E9479263110F7CFBF
:1020300033243394CACF0F931F93CF93DF93C3EC12
:10204000D3E008EE13E024EC33E042E062E788815D
:102050000E94B20E89819A81982789279827DF915B
:10206000CF911F910F9108950F931F93CF93DF93FB
:102070001F92CDB7DEB708EE13E09E012F5F3F4FF2
:1020800041E065E78091C3030E94B20E882339F0D6
:1020900089818E7790E0959587958093C403809190
:1020A000C4030F90DF91CF911F910F910895BF92BC
:1020B000CF92DF92EF92FF920F931F93CF93DF9314
:1020C0001F92CDB7DEB7F82EE62EC42EB22ED02E3C
:1020D00008EE13E09E012F5F3F4F41E00E94B20ED9
:1020E000882371F18C2D8B19990BAC014F5F5F4FD9
:1020F00081E090E002C0880F991FBA94E2F701973F
:10210000042E01C0880F0A94EAF70D2D01C0000FBC
:102110004A95EAF7482F4095998149238023482B17
:1021200049836E2D8F2D0E946B0D0F90DF91CF9103
:102130001F910F91FF90EF90DF90CF90BF90089587
:1021400080E0F3CFCF92DF92EF92FF920F931F9335
:10215000CF93DF931F92CDB7DEB7F82EE62EC42EB5
:10216000D22E08EE13E09E012F5F3F4F41E00E9408
:10217000B20E81E090E001C0880FCA94EAF749816D
:10218000DD2081F0482B49836E2D8F2D0E946B0D31
:102190000F90DF91CF911F910F91FF90EF90DF9003
:1021A000CF90089580954823EECF21E042E06AE683
:1021B0008091C3030C94A2102F923F924F925F9292
:1021C0006F927F928F929F92AF92BF92CF92DF9247
:1021D000EF92FF920F931F93CF93DF93CDB7DEB7AC
:1021E000E3970FB6F894DEBF0FBECDBF8F8F48A721
:1021F00059A76AA77BA70CA71DA72EA73FA78B33BC
:1022000009F000C20E943410883308F400C227E7A6
:102210002F8B33E03A8F6EE38BE493E00E94DB096F
:10222000FE013D96FE8BED8B9E012F5F3F4F398F58
:10223000288F7F01DF8808EE13E09E012D5E3F4F5F
:1022400041E06D2D8091C3030E94E40DAB88BC88F2
:10225000B5010B2C000C880B990B0E942D24AF8923
:10226000A33109F4D9C1B1E0AB22BB24F701B1829B
:10227000A08220E030E040E051E40E941125A88DCA
:10228000B98D6D937D938D939C931397FA8DDF0E8B
:1022900022E0E20EF11C888D998D0496998F888F2B
:1022A000AD89BE898A179B0731F6BF8DBB3309F014
:1022B000C0C18DEC9CECACE4BDE388AB99ABAAABA0
:1022C000BBABA6E0B0E0BFA3AEA31CA21BA2312C07
:1022D000212CFE013196FC8FEB8F9E01235F3F4F37
:1022E00039A328A33F893AA38F8D8DA3812C912CEC
:1022F00054011E8E1D8E08EE13E09E012D5E3F4F91
:1023000041E06DA18091C3030E94E40D6B897C893B
:10231000072E000C880B990B0E942D246B017C0169
:102320009F8D9B3371F4AD8DBE8D129751F420E0DB
:1023300030E040E856E4C701B6010E949F226B01DD
:102340007C012601370177FA709477F87094C50103
:10235000B4010E942B244B015C0120E030E0A90174
:10236000C701B6010E940425181614F0730162011A
:10237000A7019601C501B4010E94A0220E94FC237E
:102380004B015C012FE632E143E85AE3C301B2019D
:102390000E9411252CA53DA54EA55FA50E941125E3
:1023A000EB8DFC8D20813181428153810E94A022DE
:1023B0006B017C01AB8DBC8DCD92DD92ED92FC92D8
:1023C000139728A539A54AA55BA5C301B2010E94B0
:1023D0001125A70196010E94A022BF89B33109F4FB
:1023E00032C120E030E040E05EE30E9411256B0145
:1023F0007C0120E030E0A9010E94042520E030E0CB
:1024000040E05FE387FD1AC1C701B6010E94A02228
:102410000E94F5236E7FE8A1F9A180819181682B4C
:10242000792B7C8B6B8BAE014D5E5F4F6AA18091E7
:10243000C3030E94190D2D8D3E8D2F5F3F4F3E8FA0
:102440002D8F3DA13E5F3DA38AA19A8D890F8AA35E
:10245000A8A1B9A11296B9A3A8A3EB8DFC8D3496BF
:10246000FC8FEB8F2D8D3E8D2330310509F043CF4E
:1024700033E62316310471F489EE881683E098065A
:10248000A104B10438F06AE28BE493E00E94DB0916
:10249000312C212CC501B4010E942B2428A939A973
:1024A0004AA95BA90E94112520E030E040EA50E4EF
:1024B0000E947E2387FF05C0ABA1BCA11196BCA3DF
:1024C000ABA3B4E68B169104A104B10408F0DAC002
:1024D000EBE02E1631040CF4D5C02BA13CA12A3020
:1024E00031050CF4CFC06EE28BE493E00E94DB096F
:1024F00020E030E040E45FE368A579A58AA59BA5CC
:102500000E94112568A779A78AA79BA720E030E041
:1025100040E45FE36CA57DA58EA59FA50E941125D3
:102520006CA77DA78EA79FA7CE010D967C01DF88A3
:10253000DE0111963D01D3016D917D918D919D91AB
:102540003D01BF89B33109F4B1C020E030E040E083
:102550005EE30E9411254B015C0120E030E0A901FF
:102560000E94042520E030E040E05FE387FD99C051
:10257000C501B4010E94A0220E94F5236E7FF701DD
:1025800080819181682B792B7C8B6B8BAE014D5EAA
:102590005F4F6D2D8091C3030E94190DFA8DDF0EE0
:1025A00022E0E20EF11C888D998D8615970519F6AB
:1025B000AEA1BFA11197BFA3AEA3AB2B09F085CEEF
:1025C0000E94D51021E043E06AE68091C3030E9497
:1025D000A210E3960FB6F894DEBF0FBECDBFDF9119
:1025E000CF911F910F91FF90EF90DF90CF90BF9010
:1025F000AF909F908F907F906F905F904F903F90A3
:102600002F90089583E18F8B92E09A8F04CEA6E0FD
:10261000AF8BB2E0BA8FFFCD20E030E040E850E46D
:102620000E941125E88DF98D6083718382839383E5
:102630002DCE80E090E0A0E8BFE33FCEC701B60119
:102640000E949F22E5CE20E030E040E85EE30E9459
:1026500011256B017C0120E030E0A9010E940425D6
:1026600020E030E040E05FE387FD07C0C701B6012E
:102670000E94A0220E94F523D4CEC701B6010E9479
:102680009F22F8CF61E070E080E090E00E94410777
:10269000BFEF2B1A3B0AE4E62E16310409F019CEDF
:1026A00022CFC501B4010E949F2266CF20E030E016
:1026B00040E85EE30E9411254B015C0120E030E020
:1026C000A9010E94042520E030E040E05FE387FD9F
:1026D00007C0C501B4010E94A0220E94F52354CF77
:1026E000C501B4010E949F22F8CF85ED8093BC0004
:1026F0008091AA029091AB02A091AC02B091AD0280
:102700000796A11DB11D23E0B695A79597958795CE
:102710002A95D1F72091BC0024FD03C01092A80295
:1027200008954091AA025091AB026091AC02709161
:10273000AD02452B462B472B69F30097A105B10548
:1027400041F025E32A95F1F700000197A109B109AD
:10275000E1CF8091A9020C94C30A1F920F920FB689
:102760000F9211242F933F938F939F93AF93BF9317
:102770008091280290912902A0912A02B0912B0207
:102780003091270223E0230F2D3758F50196A11D24
:10279000B11D209327028093280290932902A093D1
:1027A0002A02B0932B0280912C0290912D02A091CD
:1027B0002E02B0912F020196A11DB11D80932C0213
:1027C00090932D02A0932E02B0932F02BF91AF9150
:1027D0009F918F913F912F910F900FBE0F901F905F
:1027E000189526E8230F0296A11DB11DD2CF1F9286
:1027F0000F920FB60F9211242F933F934F935F9335
:102800006F937F938F939F93AF93BF93EF93FF93B8
:10281000E0911401F09115010995FF91EF91BF919D
:10282000AF919F918F917F916F915F914F913F9168
:102830002F910F900FBE0F901F9018951F920F921F
:102840000FB60F9211242F933F934F935F936F9383
:102850007F938F939F93AF93BF93EF93FF93E091F9
:102860001201F09113010995FF91EF91BF91AF9182
:102870009F918F917F916F915F914F913F912F9198
:102880000F900FBE0F901F9018951F920F920FB6CA
:102890000F9211242F933F934F935F936F937F93E6
:1028A0008F939F93AF93BF93EF93FF93E0911001AA
:1028B000F09111010995FF91EF91BF91AF919F9117
:1028C0008F917F916F915F914F913F912F910F90D9
:1028D0000FBE0F901F9018951F920F920FB60F9278
:1028E00011242F933F934F935F936F937F938F9315
:1028F0009F93AF93BF93EF93FF93E0910E01F091FD
:102900000F010995FF91EF91BF91AF919F918F9129
:102910007F916F915F914F913F912F910F900FBEDB
:102920000F901F9018951F920F920FB60F921124BF
:102930002F933F934F935F936F937F938F939F93C7
:10294000AF93BF93EF93FF93E0910C01F0910D01D2
:102950000995FF91EF91BF91AF919F918F917F91D9
:102960006F915F914F913F912F910F900FBE0F90FC
:102970001F9018951F920F920FB60F9211248F93EC
:102980009F938091E1009091E100937F9093E1000B
:1029900083FF0FC01092E90091E09093EB0010923A
:1029A000EC0092E39093ED0010923D0298E090933A
:1029B000F00082FF22C093E09093E9009091F20032
:1029C000992319F09AE39093E8009091CA01992312
:1029D00041F09091CA0191509093CA01911101C0A8
:1029E0005D9A90913C02992341F090913C02915064
:1029F00090933C02911101C0289A84FF18C08091E5
:102A0000E2008E7E81608093E2008091E1008F7E03
:102A10008093E1008091CB018E7E80618093CB0119
:102A20009F918F910F900FBE0F901F90189580FF70
:102A3000F7CF8091E2008E7E80618093E2008091EA
:102A4000E1008E7E8093E1008091CB018E7E8160DB
:102A5000E5CF1F920F920FB60F921124CF92DF9203
:102A6000EF92FF920F931F932F933F934F935F9398
:102A70006F937F938F939F93AF93BF93EF93FF9346
:102A8000CF93DF93CDB7DEB76C97DEBFCDBF10928B
:102A9000E9008091E80083FF25C068E0CE014596FB
:102AA0000E943E0882EF8093E8008D8987FF39C03D
:102AB0009091E80090FFFCCF982F907609F034C1F8
:102AC0009E894F89588D2F89F88C911131C080389B
:102AD00061F58091CC018093F1001092F1008EEFAE
:102AE0008093E8006C960FB6F894DEBF0FBECDBFA2
:102AF000DF91CF91FF91EF91BF91AF919F918F9116
:102B00007F916F915F914F913F912F911F910F9105
:102B1000FF90EF90DF90CF900F900FBE0F901F901F
:102B200018959EEF9093E800C7CF1092F100D5CF93
:102B3000913059F48111D3CF4130510581F6809104
:102B4000CC018D7F8093CC01CACF933049F48111A1
:102B5000C6CF4130510519F68091CC018260F2CF89
:102B6000953041F48091E80080FFFCCF20682093ED
:102B7000E300B5CF963009F0A9C00B8D1C8D22E083
:102B80001092E9001092C8011092C701F2122EC0F3
:102B90001092C6011092C5010E940D081F8299E093
:102BA0009983FA8291E09E8390EA98879AEF9987B9
:102BB0002091C7013091C801275F3F4F3C832B8391
:102BC0008D831092E9001092C8011092C7011093F2
:102BD000C6010093C50149E050E0BE016F5F7F4F21
:102BE00080E00E94E7070E940D0879CF1093C6018C
:102BF0000093C5010E945206DC0112960D911C91B2
:102C00000115110509F451C1D801ED91FC91048021
:102C1000F581E02DBE016B5E7F4FC80109950097DD
:102C200009F03EC1F80100851185EACFF3E0FF12FB
:102C30000EC08F89882309F440C0823061F440E8D7
:102C400060E188E392E00E94B407811148CF81E2FD
:102C50008093EB0047CF813029F440E86BE08CE2B1
:102C600092E0F1CF833099F70E945206DC01129670
:102C7000ED90FC908E010F5F1F4F6801E114F1048D
:102C800079F0D701ED91FC910680F781E02DB80134
:102C9000C7010995080F111DF701E084F184EECFFB
:102CA000D8011C92F60101900020E9F73197BF018D
:102CB0006C197D0940E0C601C6CF66E172E0FB01F8
:102CC000449150E080E80E94E70709CF973009F46B
:102CD000BECF983021F481E08093F10000CF99308D
:102CE00009F0FDCE837009F0B2CFEDE1F1E081E0B3
:102CF00031E096E32191222371F08093E900309333
:102D0000EB00DF0111972C912093EC009093ED00E4
:102D10008F5F873079F78EE78093EA001092EA00A0
:102D20008F8980933D02DBCE8B8D9C8D1092E900C4
:102D30001092C8011092C7019093C6018093C501FB
:102D4000898D811192C08E899D89913A49F4813291
:102D500009F07DCF47E050E064E071E080E0B3CF60
:102D6000913209F074CF833269F48F89988DB0E085
:102D7000A0E08093000190930101A0930201B09321
:102D80000301ADCE803269F48091E80082FFFCCF70
:102D900067E084E091E00E943E088BEF8093E800BA
:102DA0009ECE823209F09BCE8F8980930B01EEEF8D
:102DB000FFE7859194918B3F9C4D51F1E0E0F8E065
:102DC0008091040190910501A0910601B091070145
:102DD000803B9440A105B105F1F480910B0180FD89
:102DE0001AC0EE3F8AE0F80789F587E797E79183F5
:102DF0008083809160008093C90188E19BE00FB6D9
:102E0000F894A895809360000FBE9093600067CE01
:102E1000EEEFFAE0D5CF808191818737974709F0AF
:102E20005ECEA8958091600088618093600080915B
:102E3000C90180936000EE3F2AE0F20789F080919B
:102E4000FE0A9091FF0A9183808349CE808191810F
:102E50008737980751F29093FF0A8093FE0AC5CFF7
:102E60001092FF0A1092FE0A3ACE0E945206DC012E
:102E700012960D911C910115110509F4E8CED801A7
:102E8000ED91FC910190F081E02DBE016B5E7F4FD2
:102E9000C8010995811123CEF80100851185EBCF7A
:102EA000181619060CF41BCED2CEF1E0FF12BECEDE
:102EB0006AE172E004CF1F920F920FB60F921124B5
:102EC0002F933F934F935F936F937F938F939F9332
:102ED000AF93BF93EF93FF938EEA92E00E94C908ED
:102EE000FF91EF91BF91AF919F918F917F916F91E2
:102EF0005F914F913F912F910F900FBE0F901F90B8
:102F000018951F920F920FB60F9211242F938F9343
:102F10009F93EF93FF93E091BE02F091BF028081F7
:102F2000E091C402F091C50282FD1BC090818091A6
:102F3000C7028F5F8F732091C802821741F0E09122
:102F4000C702F0E0E255FD4F958F8093C702FF91D5
:102F5000EF919F918F912F910F900FBE0F901F9027
:102F600018958081F4CF1F920F920FB60F92112403
:102F70002F933F934F935F936F937F938F939F9381
:102F8000AF93BF93EF93FF938091B900887F803612
:102F900009F44AC0F0F5883209F4A7C018F5803169
:102FA00009F49BC0B8F4882309F4F9C0883009F407
:102FB00094C0FF91EF91BF91AF919F918F917F91BD
:102FC0006F915F914F913F912F910F900FBE0F9096
:102FD0001F901895883109F488C0803251F780938A
:102FE000860214C0803409F49DC040F48033B9F3E4
:102FF0008833F9F68093860285ECB0C0803509F4F9
:1030000085C0883509F496C0883499F60E947513F6
:10301000D0CF883909F48CC038F5883729F050F4BE
:10302000883611F0803729F683E08093A802109249
:10303000C40157C0883809F47BC0803919F0803842
:1030400009F0B7CF8091C401803208F071C0E091DF
:10305000C40181E08E0F8093C4018091BB00F0E039
:10306000EC55FE4F80833DC0803B39F0E0F4803A60
:1030700009F479C0883A09F09CCF84E08093A802D3
:103080001092A3011092A201E091CF01F091D00122
:1030900009958091A20181110FC081E08093A20166
:1030A0001092820109C0803C09F4A6CF883C09F443
:1030B000A3CF883B09F07DCFE091A30181E08E0F83
:1030C0008093A301F0E0EE57FE4F80818093BB0018
:1030D0009091A3018091A20129C0809183028093E5
:1030E000BB0085EC8093BC0064CF909185028091F9
:1030F0008402981758F5E091850281E08E0F809345
:103100008502F0E0EE59FD4F8081E9CFE091850224
:1031100081E08E0F809385028091BB00F0E0EE5934
:10312000FD4F808390918502809184029817C8F2A8
:1031300085E8D8CFE091850281E08E0F80938502EB
:103140008091BB00F0E0EE59FD4F808380918702B3
:1031500081115CCF81E08093820284EA8093BC007D
:103160001092A80226CF85EC8093BC001092A80292
:103170008091C401803230F4E091C401F0E0EC555C
:10318000FE4F10826091C40170E0E091CD01F0919A
:10319000CE0184EA91E009951092C4010ACF109201
:1031A000860234CFEEEAF2E01382128288EE93E0D8
:1031B000A0E0B0E084839583A683B78327E231E063
:1031C000318320832DEC30E0358724872CEC30E0F0
:1031D0003787268728EC30E0318B208B29EC30E0D4
:1031E000338B228B2AEC30E0358B248B2EEC30E0B5
:1031F000378B268B118E128E138E148EEBE4F3E038
:103200001382128284839583A683B78329E331E0F6
:10321000318320832FEF3FEF35872487EBE9F3E0FD
:103220001382128284839583A683B7838BE491E013
:103230009183808388E68093C303E3EBF3E080E02F
:1032400090E0A0E8BFE380839183A283B3831482DC
:1032500015821682178210861186128613861486AE
:10326000158616861786E7EAF3E01082118212822D
:103270001382148215821682178210861186128696
:1032800013860895CF93DF93CDB7DEB7C654D10927
:103290000FB6F894DEBF0FBECDBF789484B58260C0
:1032A00084BD84B5816084BD85B5826085BD85B5EA
:1032B000816085BD80916E00816080936E00109268
:1032C00081008091810082608093810080918100E3
:1032D0008160809381008091800081608093800074
:1032E0008091910082608093910080919100816033
:1032F00080939100809190008160809390008091F4
:10330000C10084608093C1008091C100826080937D
:10331000C1008091C10081608093C1008091C30091
:1033200081608093C3008091C00082608093C00060
:103330008091C20081608093C20080917A00846095
:1033400080937A0080917A00826080937A008091E5
:103350007A00816080937A0080917A0080688093FF
:103360007A0010923D021092CC011092CB01809114
:10337000D70081608093D70080EA8093D80089B518
:10338000806189BD89B5826089BD09B400FEFDCF29
:1033900061E070E080E090E00E9441078091D800F9
:1033A0008F7C80618093D8008091E000807F809343
:1033B000E0008091E1008E7E8093E1008DE08093BB
:1033C000E200559A209A1092D2011092D1011092E7
:1033D0003F02109261020E94A50A83E897E0909351
:1033E000D0018093CF0184E897E09093CE01809341
:1033F000CD018CE08093B8008FEF9FEF909358033E
:1034000080935703E091BE02F091BF0282E0808377
:10341000E091BA02F091BB021082E091BC02F091FF
:10342000BD0280E180831092C602E091C202F09159
:10343000C30286E08083E091C002F091C1028081E6
:1034400080618083E091C002F091C1028081886038
:103450008083E091C002F091C10280818068808306
:10346000E091C002F091C10280818F7D80838CE564
:1034700091E00E947E0D89E591E00E947E0D01E0C1
:1034800023E042E06BE68091C3030E94571000E006
:1034900022E044E06BE18091C3030E94571022E0D8
:1034A00044E06CE18091C3030E94571020E046E0A5
:1034B0006BE68091C3030E94A21060E087E00E9447
:1034C000E00682E39BE00E948B0D0E94341084335F
:1034D00009F44EC28C3009F44BC286EE9AE00E9489
:1034E0008B0D8EE19BE00E948B0D21E047E06BE6A7
:1034F0008091C3030E94A2106EE170E080E090E032
:103500000E94410720E046E06BE68091C3030E94E1
:10351000A21040E76DE68091C3030E946B0D46E068
:103520006EE68091C3030E946B0D40E06DE68091D2
:10353000C3030E946B0D4FE765E28091C3030E94B5
:103540006B0D20E045E06AE68091C3030E94A21063
:1035500048E665E28091C3030E946B0D21E041E0E3
:103560006AE68091C3030E94A21064E170E080E0EB
:1035700090E00E94410703E023E042E06BE6809187
:10358000C3030E94571042E168E38091C3030E9485
:103590006B0D44E069E18091C3030E946B0D01E073
:1035A00023E045E06AE18091C3030E94571003E0E5
:1035B00023E042E06AE18091C3030E94571022E0B9
:1035C00044E06BE18091C3030E94571001E020E0CA
:1035D00040E069E877E089E492E00E945A0F11E048
:1035E000882309F45FC0198281E08A8300E026E124
:1035F00042E062E070E0CE0101960E945A0F43E083
:1036000060E78091C3030E946B0D40E061E7809109
:10361000C3030E946B0D20E040E060E08091C30393
:103620000E94A21042E06FE18091C3030E946B0DE3
:103630004CE961E28091C3030E946B0D40E560E2BA
:103640008091C3030E946B0D40E062E28091C3034E
:103650000E946B0D21E046E06AE68091C3030E9460
:10366000A21021E043E06AE68091C3030E94A21009
:1036700020E047E06AE68091C3030E94A2108AE23C
:1036800090E09093D5038093D4030E94D51008EE68
:1036900013E024EC33E041E06AE38091C3030E942D
:1036A000B20E10E01093D3018091C3032CED30E0F3
:1036B0003EA72DA7AE01435D5F4F63E10E94190D48
:1036C0008091C3032CE430E03CA72BA7AE01455DFD
:1036D0005F4F65E10E94190D8091C3032BEA3FEF14
:1036E0003AA729A7AE01475D5F4F67E10E94190D18
:1036F0000E9434106AE0883308F06DE78091C303BC
:103700002CEF36E038A72FA3AE01495D5F4F0E9432
:10371000190D11114AC100E010E028EA31E44EEA27
:1037200057E461EA7EE38BE30E94DC100FEF1FEFAA
:103730002CEB32E44EEA57E461EA7EE383E40E9434
:10374000DC100E94341046E0F42E883310F037E786
:10375000F32E8AEF99E00E94F10926E008EE13E0CB
:10376000F21209C19E012F5D3F4F43E066E0809158
:10377000C3030E94E40D89EF99E00E94F10987EFED
:1037800099E00E94F10969A17AA1072E000C880B2B
:10379000990B0E942D248E010F5F1F4F20E045E002
:1037A0000E94B61F0E94DD0D83EF99E00E94F1098F
:1037B00082EF99E00E94F10980EF99E00E94F109FF
:1037C0006BA17CA1072E000C880B990B0E942D2465
:1037D00020E045E00E94B61F0E94DD0D8CEE99E0CE
:1037E0000E94F1098BEE99E00E94F10989EE99E0BF
:1037F0000E94F1096DA17EA1072E000C880B990B88
:103800000E942D2420E045E00E94B61F0E94DD0D9D
:1038100085EE99E00E94F10908EE13E09E012F5D0C
:103820003F4F43E063E18091C3030E94E40D84EEC7
:1038300099E00E94F10982EE99E00E94F10969A1E4
:103840007AA1072E000C880B990B0E942D248E0163
:103850000F5F1F4F20E045E00E94B61F0E94DD0D64
:103860008EED99E00E94F1098DED99E00E94F10939
:103870008BED99E00E94F1096BA17CA1072E000C51
:10388000880B990B0E942D2420E045E00E94B61F72
:103890000E94DD0D87ED99E00E94F10986ED99E027
:1038A0000E94F10984ED99E00E94F1096DA17EA1C9
:1038B000072E000C880B990B0E942D2420E045E078
:1038C0000E94B61F0E94DD0D82ED99E00E94F10971
:1038D00086ED9AE00E948B0D21E047E06AE6809138
:1038E000C3030E94A2108CE99AE00E94F1094AE009
:1038F00064E070E080E090E00E94990D87E99AE032
:103900000E948B0D8FE797E090931501809314012F
:1039100080916A00806380936A00EE9A08EE13E05B
:1039200024EC33E041E06AE38091C3030E94B20ECD
:103930008DE69AE00E948B0D81E08093260261E083
:103940008DE00E94E00662E084E00E94E00620E054
:10395000222E20E0322E80912602811137C088E786
:1039600091E00E947E0D89E591E00E947E0DFFCFDF
:1039700080E09BE0B4CD9E012F5D3F4F41E06F2D75
:103980008091C3030E94E40D63E06F0D9E012D5DE5
:103990003F4F41E08091C3030E94E40D66E06F0D4C
:1039A0009E012B5D3F4F41E0E2CE8CE49AE00E9405
:1039B000F1096091D30170E090E080E04AE00E945C
:1039C000990D8AE49AE00E948B0DB9CF8090D403C0
:1039D0009090D5030E941C072B013C016401DD245B
:1039E0000E941B105C01C816D9060CF0B4C0893CBB
:1039F00091050CF48CC00E94D5100E941B105C0134
:103A0000892B09F0ACC00E941C076419750986094E
:103A10009709693F7A428105910578F320E030E00B
:103A200044E353E46091DA017091DB018091DC01A1
:103A30009091DD010E9411252BED3FE049E450E417
:103A40000E9483230E94F5237093D8016093D701CD
:103A500077FF06C068597E4F7093D8016093D701F5
:103A6000ECEBFBE08491EDE9FBE0F490EEE7FBE0AA
:103A7000E490E1106BC28091D7019091D8019093AE
:103A8000D6018093D5018091D7019091D8012091E2
:103A9000D5013091D601821B930B9093D80180936E
:103AA000D70197FF06C088599E4F9093D801809305
:103AB000D701A091D701B091D8012FEF30E00E943B
:103AC000982227E631E040E050E00E940B22690195
:103AD0002093D401CA01B9017727882799274AE0A2
:103AE0000E94990D89E591E00E947E0D6C2D8EEA71
:103AF00092E00E94EA082114310409F42CCF0E94BC
:103B0000B508882309F423CF0E94000020CF0E942B
:103B10001B105C01C816D906F4F47C01EC18FD08F2
:103B20005701B1E2EB16F1041CF090E2A92EB12C82
:103B3000AA2079F008EE13E09E012F5F3F4F4A2D37
:103B400064E78091C3030E94B20EEA18FB0841F7B4
:103B5000DECF1982FACFA114B10409F45FCF0E941D
:103B60001C076419750986099709693F7A4281051E
:103B7000910508F053CFAC14BD0409F031CF882073
:103B800009F4DCC108EE13E026EE31E0482D64E7CD
:103B90008091C3030E94B20EA090EA01B090EB01A5
:103BA000BA24AB24BA24C090EE01D090EF01DC24FB
:103BB000CD24DC24E090F201F090F301FE24EF2408
:103BC000FE246091E6017091E7017627672776274A
:103BD000072E000C880B990B0E942D2420E030E06A
:103BE00040E858E30E9411252B013C014092B303A9
:103BF0005092B4036092B5037092B603B501BB0C4A
:103C0000880B990B0E942D2420E030E040E858E317
:103C10000E9411254B015C018092B7039092B8037A
:103C2000A092B903B092BA03B601DD0C880B990BD0
:103C30000E942D2420E030E040E858E30E94112546
:103C40006FA778AB89AB9AAB6093BB037093BC034F
:103C50008093BD039093BE03B701FF0C880B990BB3
:103C60000E942D2420E030E040E858E30E94112516
:103C70006BAB7CAB8DAB9EAB6093BF037093C0030B
:103C80008093C1039093C2039B01AC01C501B401B1
:103C90000E9411256B017C012FA538A949A95AA9B9
:103CA000C301B2010E9411259B01AC01C701B601FD
:103CB0000E949F229B01AC010E94A02223966CAF20
:103CC0007DAF8EAF9FAF23976093A7037093A80338
:103CD0008093A9039093AA03A5019401C301B201A3
:103CE0000E9411256B017C012BA93CA94DA95EA95D
:103CF0006FA578A989A99AA90E9411259B01AC01F9
:103D0000C701B6010E94A0229B01AC010E94A02223
:103D10006BAF7CAF8DAF9EAF6093AB037093AC0382
:103D20008093AD039093AE03A3019201C301B2014E
:103D30000E9411256B017C01A5019401C501B4010C
:103D40000E9411259B01AC01C701B6010E949F2270
:103D50006B017C012FA538A949A95AA9CA01B9014B
:103D60000E9411259B01AC01C701B6010E949F2250
:103D70006B017C012BA93CA94DA95EA9CA01B9011F
:103D80000E9411259B01AC01C701B6010E94A0222F
:103D90006FAB78AF89AF9AAF6093AF037093B00306
:103DA0008093B1039093B203A3019201C301B201C6
:103DB0000E94A0226B017C01A5019401C501B40100
:103DC0000E94A02227966CAF7DAF8EAF9FAF279742
:103DD000A3019201C701B6010E9411252B013C01EC
:103DE000A501940127966CAD7DAD8EAD9FAD279753
:103DF0000E9411259B01AC01C301B2010E94A022C7
:103E000020E030E040E85FE30E949F222B013C016C
:103E10002FA538A949A95AA927966CAD7DAD8EADBD
:103E20009FAD27970E9411254B015C012BA93CA94E
:103E30004DA95EA9C701B6010E9411259B01AC01E5
:103E4000C501B4010E949F22A30192010E941F2379
:103E50006093DA017093DB018093DC019093DD01C4
:103E60002BAD3CAD4DAD5EADCA01B9010E9411252F
:103E70006B017C012FA938AD49AD5AADCA01B9011A
:103E80000E9411259B01AC01C701B6010E94A0222E
:103E90000E9484259B01AC0123966CAD7DAD8EAD57
:103EA0009FAD23970E941F236B017C01C092DE010E
:103EB000D092DF01E092E001F092E1012FA938AD4C
:103EC00049AD5AAD6BAD7CAD8DAD9EAD0E941F234B
:103ED0006093E2017093E3018093E4019093E50124
:103EE00020E030E0A9016FA978AD89AD9AAD0E94BC
:103EF0007E2387FF19C020E030E0A901C701B60189
:103F00000E940425A70196011816DCF46BED7FE0F2
:103F100089E490E40E949F226093DE017093DF01A8
:103F20008093E0019093E1016091D90181E06827DD
:103F30006093D9018DE00E94B20670CD1092E60127
:103F40002BCE6BED7FE089E490ECE4CF81110E94F1
:103F50006606EE2DF0E0EE0FFF1FE05BF44FA5913B
:103F6000B4918C91F82209F486CD8DCDEF920F9308
:103F70001F93CF93DF93E80134E047FD34E1042E33
:103F8000000C550B57FF03C0519541955109E32E85
:103F9000022F242FAE010E94D41FCE01DF91CF91BA
:103FA0001F910F91EF900895A9E0B0E0EAEDFFE1D5
:103FB0000C9430226A01F22EB02E102FFBE3AF2EAC
:103FC000A01608F41BE31F5F012F27E0AE014F5F2F
:103FD0005F4F0E943321BC018981982F99709130E5
:103FE00009F43FC09BE2E1FC04C09E2D9170E0FC0F
:103FF0003AC05E2D5071E82FE87083FF46C084E020
:10400000911101C083E0EF2DE81B8F1508F0E0E06F
:10401000D6018E2F20E2552351F1992329F0D601A4
:104020009C93C60101966C0196012D5F3F4FE2FE05
:1040300024C08EE4D6018C9391E411969C93119741
:1040400012968C93D9018E2F90E281111BC0E20F42
:10405000F32FF11D10828EEF9FEF2996ECE00C9468
:104060004C229DE2C6CF90E2C4CF2D9381508111A6
:10407000FCCFCE0ED11CE0E0D0CF8EE6D6018C93E3
:1040800091E6DBCF9D938150E0CF482F447082FFB3
:104090003DC084E0911101C083E08F1510F4EF2D35
:1040A000E81BD6018E2F20E2552309F1992329F030
:1040B000D6019C93C60101966C0196012D5F3F4F7E
:1040C000E2FE1BC089E4D6018C938EE411968C939A
:1040D000119786E412968C93D9018E2F90E2882353
:1040E00009F4B5CF9D938150FACF2D938150811162
:1040F000FCCFCE0ED11CE0E0D9CF89E6D6018C935F
:104100008EE611968C93119786E6E4CF9B0177FF9C
:1041100002C030E020E0A1E0B0E0911102C0B0E0C8
:10412000A0E0F9013196AE0FBF1F8B2C912CBB2064
:1041300009F461C05401EFEFAE1ABE0AAA0DBB1D0F
:10414000FA161B0619F014F04F2D4A1B511188C0A6
:10415000E3FC59C07601A42FB0E2A1114FC0C40EF8
:10416000D11C992309F45BC040E0D6011196F601F9
:1041700090836D01552309F448C0012F060F9A81E1
:10418000582F507184FF03C0913309F40150101669
:104190000CF047C0093008F008E0EEE2FE2E5B01AB
:1041A000A01AB10885019194819491082F3F32079C
:1041B00029F4D601FC92F60131966F01621773075C
:1041C00094F1021713077CF5DB01A21BB30BAA24A1
:1041D000A394B12CAC0EBD1EAA0DBB1D11968C91E3
:1041E00021503109D601119628153905F4F0F60150
:1041F00080836D01DBCFB12CA12CA0CFF701B1934F
:104200007F01A150AACF9111B0CFD601942F50E3D6
:1042100002C05D9391509111FCCFC40ED11C40E0BF
:10422000ACCF01E0BACF80E3DBCF6217730731F484
:10423000963388F4953311F4552369F0F6018083A1
:10424000FD01842F90E2811108C0A40FB11D1C92C2
:1042500090E080E002CF81E3F1CF91938150F3CFE2
:10426000911183CF8ACF283008F027E03327DA0175
:10427000990F311D87FD916000966105710539F434
:1042800032602E5F3D9330E32A95E1F708959F3F1A
:1042900030F080387105610509F03C5F3C5F3D936B
:1042A000913008F08068911DDF93CF931F930F9397
:1042B000FF92EF92192F987F9695E92F96959695F4
:1042C000E90FFF27EC5CFE4F99273327EE24FF24EC
:1042D000A701E70105900894079428F4360FE71E1C
:1042E000F81E491F511D660F771F881F991F0694DE
:1042F000A1F70590079428F4E70EF81E491F561FF2
:10430000C11D770F881F991F661F0694A1F705909E
:10431000079428F4F80E491F561FC71FD11D880F98
:10432000991F661F771F0694A1F70590079420F444
:10433000490F561FC71FD81F990F661F771F881F69
:104340000694A9F784911095177041F0D695C795FA
:1043500057954795F794E7941A95C1F7EAEDF0E081
:1043600068941590159135916591959105907FE22E
:104370007395E118F10A430B560BC90BD009C0F72E
:10438000E10CF11E431F561FC91FD01D7EF4703370
:1043900011F48A95E6CFE894015030F0080F0AF442
:1043A0000027021708F4202F2395022F7A3328F0D4
:1043B00079E37D932A95E9F710C07D932A9589F6D4
:1043C000069497956795379517951794E118F10A14
:1043D000430B560BC90BD00998F023957E9173952A
:1043E0007A3308F070E37C932013B8F77E91706104
:1043F0007D9330F0839571E37D9370E32A95E1F727
:104400001124EF90FF900F911F91CF91DF91992789
:1044100087FD90950895052E97FB1EF400940E9449
:10442000222257FD07D00E94612207FC03D04EF4E0
:104430000C94222250954095309521953F4F4F4F37
:104440005F4F089590958095709561957F4F8F4F40
:104450009F4F08952F923F924F925F926F927F925B
:104460008F929F92AF92BF92CF92DF92EF92FF9284
:104470000F931F93CF93DF93CDB7DEB7CA1BDB0B30
:104480000FB6F894DEBF0FBECDBF09942A883988D5
:1044900048885F846E847D848C849B84AA84B984DC
:1044A000C884DF80EE80FD800C811B81AA81B981E8
:1044B000CE0FD11D0FB6F894DEBF0FBECDBFED01FC
:1044C0000895A1E21A2EAA1BBB1BFD010DC0AA1F55
:1044D000BB1FEE1FFF1FA217B307E407F50720F06D
:1044E000A21BB30BE40BF50B661F771F881F991FE8
:1044F0001A9469F760957095809590959B01AC0131
:10450000BD01CF010895A29FB001B39FC001A39F39
:10451000700D811D1124911DB29F700D811D1124FC
:10452000911D0895EE0FFF1F0590F491E02D099461
:104530000E948322B7FF0895821B930B0895505861
:10454000BB27AA270E94B7220C94CA240E94BC242D
:1045500038F00E94C32420F039F49F3F19F426F468
:104560000C9492240EF4E095E7FB0C948C24E92F34
:104570000E94DB2458F3BA17620773078407950774
:1045800020F079F4A6F50C94FD240EF4E0950B2EA2
:10459000BA2FA02D0B01B90190010C01CA01A00195
:1045A0001124FF27591B99F0593F50F4503E68F1F0
:1045B0001A16F040A22F232F342F4427585FF3CF31
:1045C000469537952795A795F0405395C9F77EF402
:1045D0001F16BA0B620B730B840BBAF09150A1F04B
:1045E000FF0FBB1F661F771F881FC2F70EC0BA0FD1
:1045F000621F731F841F48F4879577956795B79559
:10460000F7959E3F08F0B0CF9395880F08F0992753
:10461000EE0F9795879508950E94BC2460F080E87E
:1046200091E009F49EEF0E94C32428F040E851E095
:1046300071F45EEF0CC00C9492240C94FD24E92FCD
:10464000E0780E94DB2440F3092E052AB1F32617F7
:1046500037074807590738F00E2E07F8E02569F0AC
:10466000E025E0640AC0EF6307F8009407FADB0175
:10467000B9019D01DC01CA01AD01EF930E949A23AB
:104680000E94CA240E944F235F91552339F02BEDDD
:104690003FE049E450FD49EC0C94A0220895DF93DB
:1046A000DD27B92FBF7740E85FE3161617064807E6
:1046B0005B0718F4D92F0E9409259F938F937F934E
:1046C0006F930E94C425ECEAF0E00E9495240E94BA
:1046D000CA242F913F914F915F910E942425DD23A1
:1046E00051F09058A2EA2AED3FE049EC5FE3D07820
:1046F0005D270E94B722DF910C94CA240E9468248F
:1047000008F481E008950E9497230C94CA240E9423
:10471000C32458F00E94BC2440F029F45F3F29F0E4
:104720000C948C2451110C94FE240C9492240E941D
:10473000DB2468F39923B1F3552391F3951B550BB3
:10474000BB27AA2762177307840738F09F5F5F4F64
:10475000220F331F441FAA1FA9F335D00E2E3AF0A3
:10476000E0E832D091505040E695001CCAF72BD0BB
:10477000FE2F29D0660F771F881FBB1F261737070C
:104780004807AB07B0E809F0BB0B802DBF01FF273E
:1047900093585F4F3AF09E3F510578F00C948C246B
:1047A0000C94FE245F3FE4F3983ED4F3869577950E
:1047B0006795B795F7959F5FC9F7880F911D9695F7
:1047C000879597F90895E1E0660F771F881FBB1F53
:1047D000621773078407BA0720F0621B730B840B00
:1047E000BA0BEE1F88F7E09508950E94FC236894A9
:1047F000B1110C94FE2408950E94E32488F09F5781
:1048000098F0B92F9927B751B0F0E1F0660F771FF4
:10481000881F991F1AF0BA95C9F714C0B13091F0EA
:104820000E94FD24B1E008950C94FD24672F782F99
:104830008827B85F39F0B93FCCF3869577956795AF
:10484000B395D9F73EF490958095709561957F4F1B
:104850008F4F9F4F0895E89409C097FB3EF49095C1
:104860008095709561957F4F8F4F9F4F9923A9F049
:10487000F92F96E9BB279395F695879577956795D8
:10488000B795F111F8CFFAF4BB0F11F460FF1BC01C
:104890006F5F7F4F8F4F9F4F16C0882311F096E9AF
:1048A00011C0772321F09EE8872F762F05C066235D
:1048B00071F096E8862F70E060E02AF09A95660F16
:1048C000771F881FDAF7880F9695879597F90895CF
:1048D000990F0008550FAA0BE0E8FEEF1616170611
:1048E000E807F907C0F012161306E407F50798F079
:1048F000621B730B840B950B39F40A2661F0232B92
:10490000242B252B21F408950A2609F4A140A6950D
:104910008FEF811D811D089597F99F6780E870E0F2
:1049200060E008959FEF80EC0895DF93CF931F938D
:104930000F93FF92EF92DF927B018C01689406C087
:10494000DA2EEF010E942425FE01E894A59125911D
:10495000359145915591A6F3EF010E94B722FE01D2
:104960009701A801DA9469F7DF90EF90FF900F911B
:104970001F91CF91DF91089500240A94161617060F
:1049800018060906089500240A9412161306140640
:1049900005060895092E0394000C11F4882352F0A3
:1049A000BB0F40F4BF2B11F460FF04C06F5F7F4F5B
:1049B0008F4F9F4F089557FD9058440F551F59F042
:1049C0005F3F71F04795880F97FB991F61F09F3FFC
:1049D00079F087950895121613061406551FF2CF25
:1049E0004695F1DF08C0161617061806991FF1CF75
:1049F00086957105610508940895E894BB2766279C
:104A00007727CB0197F908950E94682408F48FEF67
:104A100008959B01AC0160E070E080E89FE30C9496
:104A200083230E9424250C94CA240E94BC2438F0BD
:104A30000E94C32420F0952311F00C948C240C9434
:104A4000922411240C94FE240E94DB2470F3959F81
:104A5000C1F3950F50E0551F629FF001729FBB2775
:104A6000F00DB11D639FAA27F00DB11DAA1F649F11
:104A70006627B00DA11D661F829F2227B00DA11DC4
:104A8000621F739FB00DA11D621F839FA00D611D4A
:104A9000221F749F3327A00D611D231F849F600D6B
:104AA000211D822F762F6A2F11249F5750409AF094
:104AB000F1F088234AF0EE0FFF1FBB1F661F771F20
:104AC000881F91505040A9F79E3F510580F00C94EB
:104AD0008C240C94FE245F3FE4F3983ED4F3869537
:104AE00077956795B795F795E7959F5FC1F7FE2B8B
:104AF000880F911D9695879597F9089519F416F4E6
:104B00000C9492240C94C8250E94E324B8F39923B2
:104B1000C9F3B6F39F57550B87FF0E94D625002493
:104B2000A0E640EA900180585695979528F4805C5D
:104B3000660F771F881F20F026173707480730F4C5
:104B4000621B730B840B202931294A2BA6951794DD
:104B50000794202531254A2758F7660F771F881FAD
:104B600020F026173707480730F4620B730B840BCD
:104B7000200D311D411DA09581F7B901842F915859
:104B8000880F9695879508959B01AC010C9411258B
:104B90009F3F31F0915020F4879577956795B795B1
:104BA000880F911D9695879597F9089591505040DB
:104BB000660F771F881FD2F708950F931F93CF9327
:104BC000DF938230910510F482E090E0E091D80309
:104BD000F091D90330E020E0B0E0A0E0309799F404
:104BE0002115310509F44AC0281B390B2430310541
:104BF000D8F58A819B816115710589F1FB01938349
:104C00008283FE0111C040815181028113814817C6
:104C10005907E0F04817590799F4109761F0129678
:104C20000C93129713961C933296CF01DF91CF917C
:104C30001F910F9108950093D8031093D903F4CFD7
:104C40002115310551F04217530738F0A901DB0156
:104C50009A01BD01DF01F801C1CFEF01F9CF9093B7
:104C6000D9038093D803CDCFFE01E20FF31F8193C8
:104C700091932250310939832883D7CF2091D603CD
:104C80003091D703232B41F4209118013091190161
:104C90003093D7032093D60320911601309117014A
:104CA0002115310541F42DB73EB740911A015091BD
:104CB0001B01241B350BE091D603F091D703E217BB
:104CC000F307A0F42E1B3F0B2817390778F0AC012F
:104CD0004E5F5F4F2417350748F04E0F5F1F50930C
:104CE000D7034093D603819391939FCFF0E0E0E008
:104CF0009CCFCF93DF930097E9F0FC0132971382AA
:104D00001282A091D803B091D903ED0130E020E0E8
:104D10001097A1F420813181820F931F2091D60337
:104D20003091D7032817390709F061C0F093D703F2
:104D3000E093D603DF91CF910895EA01CE17DF0704
:104D4000E8F54A815B819E0141155105B1F7E90102
:104D5000FB83EA8349915991C40FD51FEC17FD07D6
:104D600061F4808191810296840F951FE9019983F6
:104D70008883828193819B838A83F0E0E0E01296AE
:104D80008D919C9113970097B9F52D913C911197B6
:104D9000CD010296820F931F2091D6033091D70345
:104DA0002817390739F6309751F51092D903109228
:104DB000D803B093D703A093D603BCCFD383C283C9
:104DC00040815181840F951FC817D90761F44E5F48
:104DD0005F4F88819981480F591F518340838A8191
:104DE0009B81938382832115310509F0B0CFF09325
:104DF000D903E093D8039ECFFD01DC01C0CF13821D
:104E00001282D7CFFB01DC0104C08D910190801983
:104E100021F441505040C8F7881B990B0895F8942D
:024E2000FFCFC2
:104E2200FFFFFFFF00E1000000000000850785078B
:104E32008507850785070000DA03800000C18081AD
:104E420000000000000000EA084B0878083609A9B3
:104E52000887089B0800000000DB095609170A0CA6
:104E62000A5D0A1B0A390A00000000EA0CBD0C7B2D
:104E72000D9A0C770AAA0C9B0C0D0A00496E6974F4
:104E820069616C697A696E6720493243206465768C
:104E9200696365732E2E2E004661696C656400009D
:00000001FF
